{
  "contractName": "EmpireToken",
  "abi": [
    {
      "inputs": [],
      "stateMutability": "nonpayable",
      "type": "constructor"
    },
    {
      "anonymous": false,
      "inputs": [
        {
          "indexed": true,
          "internalType": "address",
          "name": "owner",
          "type": "address"
        },
        {
          "indexed": true,
          "internalType": "address",
          "name": "spender",
          "type": "address"
        },
        {
          "indexed": false,
          "internalType": "uint256",
          "name": "value",
          "type": "uint256"
        }
      ],
      "name": "Approval",
      "type": "event"
    },
    {
      "anonymous": false,
      "inputs": [
        {
          "indexed": true,
          "internalType": "address",
          "name": "previousOwner",
          "type": "address"
        },
        {
          "indexed": true,
          "internalType": "address",
          "name": "newOwner",
          "type": "address"
        }
      ],
      "name": "OwnershipTransferred",
      "type": "event"
    },
    {
      "anonymous": false,
      "inputs": [
        {
          "indexed": false,
          "internalType": "address",
          "name": "account",
          "type": "address"
        }
      ],
      "name": "Paused",
      "type": "event"
    },
    {
      "anonymous": false,
      "inputs": [
        {
          "indexed": false,
          "internalType": "uint256",
          "name": "id",
          "type": "uint256"
        }
      ],
      "name": "Snapshot",
      "type": "event"
    },
    {
      "anonymous": false,
      "inputs": [
        {
          "indexed": true,
          "internalType": "address",
          "name": "from",
          "type": "address"
        },
        {
          "indexed": true,
          "internalType": "address",
          "name": "to",
          "type": "address"
        },
        {
          "indexed": false,
          "internalType": "uint256",
          "name": "value",
          "type": "uint256"
        }
      ],
      "name": "Transfer",
      "type": "event"
    },
    {
      "anonymous": false,
      "inputs": [
        {
          "indexed": false,
          "internalType": "address",
          "name": "account",
          "type": "address"
        }
      ],
      "name": "Unpaused",
      "type": "event"
    },
    {
      "inputs": [],
      "name": "MAX_SUPPLY",
      "outputs": [
        {
          "internalType": "uint256",
          "name": "",
          "type": "uint256"
        }
      ],
      "stateMutability": "view",
      "type": "function"
    },
    {
      "inputs": [
        {
          "internalType": "address",
          "name": "owner",
          "type": "address"
        },
        {
          "internalType": "address",
          "name": "spender",
          "type": "address"
        }
      ],
      "name": "allowance",
      "outputs": [
        {
          "internalType": "uint256",
          "name": "",
          "type": "uint256"
        }
      ],
      "stateMutability": "view",
      "type": "function"
    },
    {
      "inputs": [
        {
          "internalType": "address",
          "name": "spender",
          "type": "address"
        },
        {
          "internalType": "uint256",
          "name": "amount",
          "type": "uint256"
        }
      ],
      "name": "approve",
      "outputs": [
        {
          "internalType": "bool",
          "name": "",
          "type": "bool"
        }
      ],
      "stateMutability": "nonpayable",
      "type": "function"
    },
    {
      "inputs": [
        {
          "internalType": "address",
          "name": "account",
          "type": "address"
        }
      ],
      "name": "balanceOf",
      "outputs": [
        {
          "internalType": "uint256",
          "name": "",
          "type": "uint256"
        }
      ],
      "stateMutability": "view",
      "type": "function"
    },
    {
      "inputs": [
        {
          "internalType": "address",
          "name": "account",
          "type": "address"
        },
        {
          "internalType": "uint256",
          "name": "snapshotId",
          "type": "uint256"
        }
      ],
      "name": "balanceOfAt",
      "outputs": [
        {
          "internalType": "uint256",
          "name": "",
          "type": "uint256"
        }
      ],
      "stateMutability": "view",
      "type": "function"
    },
    {
      "inputs": [
        {
          "internalType": "uint256",
          "name": "amount",
          "type": "uint256"
        }
      ],
      "name": "burn",
      "outputs": [],
      "stateMutability": "nonpayable",
      "type": "function"
    },
    {
      "inputs": [
        {
          "internalType": "address",
          "name": "account",
          "type": "address"
        },
        {
          "internalType": "uint256",
          "name": "amount",
          "type": "uint256"
        }
      ],
      "name": "burnFrom",
      "outputs": [],
      "stateMutability": "nonpayable",
      "type": "function"
    },
    {
      "inputs": [],
      "name": "decimals",
      "outputs": [
        {
          "internalType": "uint8",
          "name": "",
          "type": "uint8"
        }
      ],
      "stateMutability": "view",
      "type": "function"
    },
    {
      "inputs": [
        {
          "internalType": "address",
          "name": "spender",
          "type": "address"
        },
        {
          "internalType": "uint256",
          "name": "subtractedValue",
          "type": "uint256"
        }
      ],
      "name": "decreaseAllowance",
      "outputs": [
        {
          "internalType": "bool",
          "name": "",
          "type": "bool"
        }
      ],
      "stateMutability": "nonpayable",
      "type": "function"
    },
    {
      "inputs": [
        {
          "internalType": "address",
          "name": "spender",
          "type": "address"
        },
        {
          "internalType": "uint256",
          "name": "addedValue",
          "type": "uint256"
        }
      ],
      "name": "increaseAllowance",
      "outputs": [
        {
          "internalType": "bool",
          "name": "",
          "type": "bool"
        }
      ],
      "stateMutability": "nonpayable",
      "type": "function"
    },
    {
      "inputs": [],
      "name": "name",
      "outputs": [
        {
          "internalType": "string",
          "name": "",
          "type": "string"
        }
      ],
      "stateMutability": "view",
      "type": "function"
    },
    {
      "inputs": [],
      "name": "owner",
      "outputs": [
        {
          "internalType": "address",
          "name": "",
          "type": "address"
        }
      ],
      "stateMutability": "view",
      "type": "function"
    },
    {
      "inputs": [],
      "name": "paused",
      "outputs": [
        {
          "internalType": "bool",
          "name": "",
          "type": "bool"
        }
      ],
      "stateMutability": "view",
      "type": "function"
    },
    {
      "inputs": [],
      "name": "renounceOwnership",
      "outputs": [],
      "stateMutability": "nonpayable",
      "type": "function"
    },
    {
      "inputs": [],
      "name": "symbol",
      "outputs": [
        {
          "internalType": "string",
          "name": "",
          "type": "string"
        }
      ],
      "stateMutability": "view",
      "type": "function"
    },
    {
      "inputs": [],
      "name": "totalSupply",
      "outputs": [
        {
          "internalType": "uint256",
          "name": "",
          "type": "uint256"
        }
      ],
      "stateMutability": "view",
      "type": "function"
    },
    {
      "inputs": [
        {
          "internalType": "uint256",
          "name": "snapshotId",
          "type": "uint256"
        }
      ],
      "name": "totalSupplyAt",
      "outputs": [
        {
          "internalType": "uint256",
          "name": "",
          "type": "uint256"
        }
      ],
      "stateMutability": "view",
      "type": "function"
    },
    {
      "inputs": [
        {
          "internalType": "address",
          "name": "recipient",
          "type": "address"
        },
        {
          "internalType": "uint256",
          "name": "amount",
          "type": "uint256"
        }
      ],
      "name": "transfer",
      "outputs": [
        {
          "internalType": "bool",
          "name": "",
          "type": "bool"
        }
      ],
      "stateMutability": "nonpayable",
      "type": "function"
    },
    {
      "inputs": [
        {
          "internalType": "address",
          "name": "sender",
          "type": "address"
        },
        {
          "internalType": "address",
          "name": "recipient",
          "type": "address"
        },
        {
          "internalType": "uint256",
          "name": "amount",
          "type": "uint256"
        }
      ],
      "name": "transferFrom",
      "outputs": [
        {
          "internalType": "bool",
          "name": "",
          "type": "bool"
        }
      ],
      "stateMutability": "nonpayable",
      "type": "function"
    },
    {
      "inputs": [
        {
          "internalType": "address",
          "name": "newOwner",
          "type": "address"
        }
      ],
      "name": "transferOwnership",
      "outputs": [],
      "stateMutability": "nonpayable",
      "type": "function"
    },
    {
      "inputs": [],
      "name": "pause",
      "outputs": [],
      "stateMutability": "nonpayable",
      "type": "function"
    },
    {
      "inputs": [],
      "name": "unpause",
      "outputs": [],
      "stateMutability": "nonpayable",
      "type": "function"
    },
    {
      "inputs": [],
      "name": "snapshot",
      "outputs": [],
      "stateMutability": "nonpayable",
      "type": "function"
    }
  ],
  "bytecode": "0x60806040526b033b2e3c9fd0803ce8000000600a553480156200002157600080fd5b506040518060400160405280600681526020017f456d7069726500000000000000000000000000000000000000000000000000008152506040518060400160405280600681526020017f454d5049524500000000000000000000000000000000000000000000000000008152508160039080519060200190620000a6929190620006cf565b508060049080519060200190620000bf929190620006cf565b505050620000e2620000d66200011760201b60201c565b6200011f60201b60201c565b6000600960146101000a81548160ff0219169083151502179055506200011133600a54620001e560201b60201c565b62000a07565b600033905090565b6000600960009054906101000a900473ffffffffffffffffffffffffffffffffffffffff16905081600960006101000a81548173ffffffffffffffffffffffffffffffffffffffff021916908373ffffffffffffffffffffffffffffffffffffffff1602179055508173ffffffffffffffffffffffffffffffffffffffff168173ffffffffffffffffffffffffffffffffffffffff167f8be0079c531659141344cd1fd0a4f28419497f9722a3daafe3b4186f6b6457e060405160405180910390a35050565b600073ffffffffffffffffffffffffffffffffffffffff168273ffffffffffffffffffffffffffffffffffffffff16141562000258576040517f08c379a00000000000000000000000000000000000000000000000000000000081526004016200024f90620007e0565b60405180910390fd5b6200026c600083836200035e60201b60201c565b80600260008282546200028091906200083b565b92505081905550806000808473ffffffffffffffffffffffffffffffffffffffff1673ffffffffffffffffffffffffffffffffffffffff1681526020019081526020016000206000828254620002d791906200083b565b925050819055508173ffffffffffffffffffffffffffffffffffffffff16600073ffffffffffffffffffffffffffffffffffffffff167fddf252ad1be2c89b69c2b068fc378daa952ba7f163c4a11628f55a4df523b3ef836040516200033e9190620008a9565b60405180910390a36200035a60008383620003ce60201b60201c565b5050565b6200036e620003d360201b60201c565b15620003b1576040517f08c379a0000000000000000000000000000000000000000000000000000000008152600401620003a89062000916565b60405180910390fd5b620003c9838383620003ea60201b62000dab1760201c565b505050565b505050565b6000600960149054906101000a900460ff16905090565b62000402838383620004e560201b62000e651760201c565b600073ffffffffffffffffffffffffffffffffffffffff168373ffffffffffffffffffffffffffffffffffffffff1614156200045f576200044982620004ea60201b60201c565b620004596200054d60201b60201c565b620004e0565b600073ffffffffffffffffffffffffffffffffffffffff168273ffffffffffffffffffffffffffffffffffffffff161415620004bc57620004a683620004ea60201b60201c565b620004b66200054d60201b60201c565b620004df565b620004cd83620004ea60201b60201c565b620004de82620004ea60201b60201c565b5b5b505050565b505050565b6200054a600560008373ffffffffffffffffffffffffffffffffffffffff1673ffffffffffffffffffffffffffffffffffffffff1681526020019081526020016000206200053e836200057160201b60201c565b620005b960201b60201c565b50565b6200056f6006620005636200064560201b60201c565b620005b960201b60201c565b565b60008060008373ffffffffffffffffffffffffffffffffffffffff1673ffffffffffffffffffffffffffffffffffffffff168152602001908152602001600020549050919050565b6000620005cb6200064f60201b60201c565b905080620005e2846000016200066d60201b60201c565b1015620006405782600001819080600181540180825580915050600190039060005260206000200160009091909190915055826001018290806001815401808255809150506001900390600052602060002001600090919091909150555b505050565b6000600254905090565b6000620006686008620006c160201b62000e6a1760201c565b905090565b60008082805490501415620006865760009050620006bc565b81600183805490506200069a919062000938565b81548110620006ae57620006ad62000973565b5b906000526020600020015490505b919050565b600081600001549050919050565b828054620006dd90620009d1565b90600052602060002090601f0160209004810192826200070157600085556200074d565b82601f106200071c57805160ff19168380011785556200074d565b828001600101855582156200074d579182015b828111156200074c5782518255916020019190600101906200072f565b5b5090506200075c919062000760565b5090565b5b808211156200077b57600081600090555060010162000761565b5090565b600082825260208201905092915050565b7f45524332303a206d696e7420746f20746865207a65726f206164647265737300600082015250565b6000620007c8601f836200077f565b9150620007d58262000790565b602082019050919050565b60006020820190508181036000830152620007fb81620007b9565b9050919050565b6000819050919050565b7f4e487b7100000000000000000000000000000000000000000000000000000000600052601160045260246000fd5b6000620008488262000802565b9150620008558362000802565b9250827fffffffffffffffffffffffffffffffffffffffffffffffffffffffffffffffff038211156200088d576200088c6200080c565b5b828201905092915050565b620008a38162000802565b82525050565b6000602082019050620008c0600083018462000898565b92915050565b7f5061757361626c653a2070617573656400000000000000000000000000000000600082015250565b6000620008fe6010836200077f565b91506200090b82620008c6565b602082019050919050565b600060208201905081810360008301526200093181620008ef565b9050919050565b6000620009458262000802565b9150620009528362000802565b9250828210156200096857620009676200080c565b5b828203905092915050565b7f4e487b7100000000000000000000000000000000000000000000000000000000600052603260045260246000fd5b7f4e487b7100000000000000000000000000000000000000000000000000000000600052602260045260246000fd5b60006002820490506001821680620009ea57607f821691505b6020821081141562000a015762000a00620009a2565b5b50919050565b6128308062000a176000396000f3fe608060405234801561001057600080fd5b506004361061014d5760003560e01c806370a08231116100c35780639711715a1161007c5780639711715a1461036a578063981b24d014610374578063a457c2d7146103a4578063a9059cbb146103d4578063dd62ed3e14610404578063f2fde38b146104345761014d565b806370a08231146102ce578063715018a6146102fe57806379cc6790146103085780638456cb59146103245780638da5cb5b1461032e57806395d89b411461034c5761014d565b806332cb6b0c1161011557806332cb6b0c1461020c578063395093511461022a5780633f4ba83a1461025a57806342966c68146102645780634ee2cd7e146102805780635c975abb146102b05761014d565b806306fdde0314610152578063095ea7b31461017057806318160ddd146101a057806323b872dd146101be578063313ce567146101ee575b600080fd5b61015a610450565b6040516101679190611b46565b60405180910390f35b61018a60048036038101906101859190611c01565b6104e2565b6040516101979190611c5c565b60405180910390f35b6101a8610500565b6040516101b59190611c86565b60405180910390f35b6101d860048036038101906101d39190611ca1565b61050a565b6040516101e59190611c5c565b60405180910390f35b6101f6610602565b6040516102039190611d10565b60405180910390f35b61021461060b565b6040516102219190611c86565b60405180910390f35b610244600480360381019061023f9190611c01565b610611565b6040516102519190611c5c565b60405180910390f35b6102626106bd565b005b61027e60048036038101906102799190611d2b565b610743565b005b61029a60048036038101906102959190611c01565b610757565b6040516102a79190611c86565b60405180910390f35b6102b86107c7565b6040516102c59190611c5c565b60405180910390f35b6102e860048036038101906102e39190611d58565b6107de565b6040516102f59190611c86565b60405180910390f35b610306610826565b005b610322600480360381019061031d9190611c01565b6108ae565b005b61032c610929565b005b6103366109af565b6040516103439190611d94565b60405180910390f35b6103546109d9565b6040516103619190611b46565b60405180910390f35b610372610a6b565b005b61038e60048036038101906103899190611d2b565b610af2565b60405161039b9190611c86565b60405180910390f35b6103be60048036038101906103b99190611c01565b610b23565b6040516103cb9190611c5c565b60405180910390f35b6103ee60048036038101906103e99190611c01565b610c0e565b6040516103fb9190611c5c565b60405180910390f35b61041e60048036038101906104199190611daf565b610c2c565b60405161042b9190611c86565b60405180910390f35b61044e60048036038101906104499190611d58565b610cb3565b005b60606003805461045f90611e1e565b80601f016020809104026020016040519081016040528092919081815260200182805461048b90611e1e565b80156104d85780601f106104ad576101008083540402835291602001916104d8565b820191906000526020600020905b8154815290600101906020018083116104bb57829003601f168201915b5050505050905090565b60006104f66104ef610e78565b8484610e80565b6001905092915050565b6000600254905090565b600061051784848461104b565b6000600160008673ffffffffffffffffffffffffffffffffffffffff1673ffffffffffffffffffffffffffffffffffffffff1681526020019081526020016000206000610562610e78565b73ffffffffffffffffffffffffffffffffffffffff1673ffffffffffffffffffffffffffffffffffffffff168152602001908152602001600020549050828110156105e2576040517f08c379a00000000000000000000000000000000000000000000000000000000081526004016105d990611ec2565b60405180910390fd5b6105f6856105ee610e78565b858403610e80565b60019150509392505050565b60006012905090565b600a5481565b60006106b361061e610e78565b84846001600061062c610e78565b73ffffffffffffffffffffffffffffffffffffffff1673ffffffffffffffffffffffffffffffffffffffff16815260200190815260200160002060008873ffffffffffffffffffffffffffffffffffffffff1673ffffffffffffffffffffffffffffffffffffffff168152602001908152602001600020546106ae9190611f11565b610e80565b6001905092915050565b6106c5610e78565b73ffffffffffffffffffffffffffffffffffffffff166106e36109af565b73ffffffffffffffffffffffffffffffffffffffff1614610739576040517f08c379a000000000000000000000000000000000000000000000000000000000815260040161073090611fb3565b60405180910390fd5b6107416112cc565b565b61075461074e610e78565b8261136e565b50565b60008060006107a484600560008873ffffffffffffffffffffffffffffffffffffffff1673ffffffffffffffffffffffffffffffffffffffff168152602001908152602001600020611545565b91509150816107bb576107b6856107de565b6107bd565b805b9250505092915050565b6000600960149054906101000a900460ff16905090565b60008060008373ffffffffffffffffffffffffffffffffffffffff1673ffffffffffffffffffffffffffffffffffffffff168152602001908152602001600020549050919050565b61082e610e78565b73ffffffffffffffffffffffffffffffffffffffff1661084c6109af565b73ffffffffffffffffffffffffffffffffffffffff16146108a2576040517f08c379a000000000000000000000000000000000000000000000000000000000815260040161089990611fb3565b60405180910390fd5b6108ac600061163b565b565b60006108c1836108bc610e78565b610c2c565b905081811015610906576040517f08c379a00000000000000000000000000000000000000000000000000000000081526004016108fd90612045565b60405180910390fd5b61091a83610912610e78565b848403610e80565b610924838361136e565b505050565b610931610e78565b73ffffffffffffffffffffffffffffffffffffffff1661094f6109af565b73ffffffffffffffffffffffffffffffffffffffff16146109a5576040517f08c379a000000000000000000000000000000000000000000000000000000000815260040161099c90611fb3565b60405180910390fd5b6109ad611701565b565b6000600960009054906101000a900473ffffffffffffffffffffffffffffffffffffffff16905090565b6060600480546109e890611e1e565b80601f0160208091040260200160405190810160405280929190818152602001828054610a1490611e1e565b8015610a615780601f10610a3657610100808354040283529160200191610a61565b820191906000526020600020905b815481529060010190602001808311610a4457829003601f168201915b5050505050905090565b610a73610e78565b73ffffffffffffffffffffffffffffffffffffffff16610a916109af565b73ffffffffffffffffffffffffffffffffffffffff1614610ae7576040517f08c379a0000000000000000000000000000000000000000000000000000000008152600401610ade90611fb3565b60405180910390fd5b610aef6117a4565b50565b6000806000610b02846006611545565b9150915081610b1857610b13610500565b610b1a565b805b92505050919050565b60008060016000610b32610e78565b73ffffffffffffffffffffffffffffffffffffffff1673ffffffffffffffffffffffffffffffffffffffff16815260200190815260200160002060008573ffffffffffffffffffffffffffffffffffffffff1673ffffffffffffffffffffffffffffffffffffffff16815260200190815260200160002054905082811015610bef576040517f08c379a0000000000000000000000000000000000000000000000000000000008152600401610be6906120d7565b60405180910390fd5b610c03610bfa610e78565b85858403610e80565b600191505092915050565b6000610c22610c1b610e78565b848461104b565b6001905092915050565b6000600160008473ffffffffffffffffffffffffffffffffffffffff1673ffffffffffffffffffffffffffffffffffffffff16815260200190815260200160002060008373ffffffffffffffffffffffffffffffffffffffff1673ffffffffffffffffffffffffffffffffffffffff16815260200190815260200160002054905092915050565b610cbb610e78565b73ffffffffffffffffffffffffffffffffffffffff16610cd96109af565b73ffffffffffffffffffffffffffffffffffffffff1614610d2f576040517f08c379a0000000000000000000000000000000000000000000000000000000008152600401610d2690611fb3565b60405180910390fd5b600073ffffffffffffffffffffffffffffffffffffffff168173ffffffffffffffffffffffffffffffffffffffff161415610d9f576040517f08c379a0000000000000000000000000000000000000000000000000000000008152600401610d9690612169565b60405180910390fd5b610da88161163b565b50565b610db6838383610e65565b600073ffffffffffffffffffffffffffffffffffffffff168373ffffffffffffffffffffffffffffffffffffffff161415610e0157610df4826117fa565b610dfc61184d565b610e60565b600073ffffffffffffffffffffffffffffffffffffffff168273ffffffffffffffffffffffffffffffffffffffff161415610e4c57610e3f836117fa565b610e4761184d565b610e5f565b610e55836117fa565b610e5e826117fa565b5b5b505050565b505050565b600081600001549050919050565b600033905090565b600073ffffffffffffffffffffffffffffffffffffffff168373ffffffffffffffffffffffffffffffffffffffff161415610ef0576040517f08c379a0000000000000000000000000000000000000000000000000000000008152600401610ee7906121fb565b60405180910390fd5b600073ffffffffffffffffffffffffffffffffffffffff168273ffffffffffffffffffffffffffffffffffffffff161415610f60576040517f08c379a0000000000000000000000000000000000000000000000000000000008152600401610f579061228d565b60405180910390fd5b80600160008573ffffffffffffffffffffffffffffffffffffffff1673ffffffffffffffffffffffffffffffffffffffff16815260200190815260200160002060008473ffffffffffffffffffffffffffffffffffffffff1673ffffffffffffffffffffffffffffffffffffffff168152602001908152602001600020819055508173ffffffffffffffffffffffffffffffffffffffff168373ffffffffffffffffffffffffffffffffffffffff167f8c5be1e5ebec7d5bd14f71427d1e84f3dd0314c0f7b2291e5b200ac8c7c3b9258360405161103e9190611c86565b60405180910390a3505050565b600073ffffffffffffffffffffffffffffffffffffffff168373ffffffffffffffffffffffffffffffffffffffff1614156110bb576040517f08c379a00000000000000000000000000000000000000000000000000000000081526004016110b29061231f565b60405180910390fd5b600073ffffffffffffffffffffffffffffffffffffffff168273ffffffffffffffffffffffffffffffffffffffff16141561112b576040517f08c379a0000000000000000000000000000000000000000000000000000000008152600401611122906123b1565b60405180910390fd5b611136838383611861565b60008060008573ffffffffffffffffffffffffffffffffffffffff1673ffffffffffffffffffffffffffffffffffffffff168152602001908152602001600020549050818110156111bc576040517f08c379a00000000000000000000000000000000000000000000000000000000081526004016111b390612443565b60405180910390fd5b8181036000808673ffffffffffffffffffffffffffffffffffffffff1673ffffffffffffffffffffffffffffffffffffffff16815260200190815260200160002081905550816000808573ffffffffffffffffffffffffffffffffffffffff1673ffffffffffffffffffffffffffffffffffffffff168152602001908152602001600020600082825461124f9190611f11565b925050819055508273ffffffffffffffffffffffffffffffffffffffff168473ffffffffffffffffffffffffffffffffffffffff167fddf252ad1be2c89b69c2b068fc378daa952ba7f163c4a11628f55a4df523b3ef846040516112b39190611c86565b60405180910390a36112c68484846118b9565b50505050565b6112d46107c7565b611313576040517f08c379a000000000000000000000000000000000000000000000000000000000815260040161130a906124af565b60405180910390fd5b6000600960146101000a81548160ff0219169083151502179055507f5db9ee0a495bf2e6ff9c91a7834c1ba4fdd244a5e8aa4e537bd38aeae4b073aa611357610e78565b6040516113649190611d94565b60405180910390a1565b600073ffffffffffffffffffffffffffffffffffffffff168273ffffffffffffffffffffffffffffffffffffffff1614156113de576040517f08c379a00000000000000000000000000000000000000000000000000000000081526004016113d590612541565b60405180910390fd5b6113ea82600083611861565b60008060008473ffffffffffffffffffffffffffffffffffffffff1673ffffffffffffffffffffffffffffffffffffffff16815260200190815260200160002054905081811015611470576040517f08c379a0000000000000000000000000000000000000000000000000000000008152600401611467906125d3565b60405180910390fd5b8181036000808573ffffffffffffffffffffffffffffffffffffffff1673ffffffffffffffffffffffffffffffffffffffff1681526020019081526020016000208190555081600260008282546114c791906125f3565b92505081905550600073ffffffffffffffffffffffffffffffffffffffff168373ffffffffffffffffffffffffffffffffffffffff167fddf252ad1be2c89b69c2b068fc378daa952ba7f163c4a11628f55a4df523b3ef8460405161152c9190611c86565b60405180910390a3611540836000846118b9565b505050565b6000806000841161158b576040517f08c379a000000000000000000000000000000000000000000000000000000000815260040161158290612673565b60405180910390fd5b6115936118be565b8411156115d5576040517f08c379a00000000000000000000000000000000000000000000000000000000081526004016115cc906126df565b60405180910390fd5b60006115ed85856000016118cf90919063ffffffff16565b9050836000018054905081141561160b576000809250925050611634565b6001846001018281548110611623576116226126ff565b5b906000526020600020015492509250505b9250929050565b6000600960009054906101000a900473ffffffffffffffffffffffffffffffffffffffff16905081600960006101000a81548173ffffffffffffffffffffffffffffffffffffffff021916908373ffffffffffffffffffffffffffffffffffffffff1602179055508173ffffffffffffffffffffffffffffffffffffffff168173ffffffffffffffffffffffffffffffffffffffff167f8be0079c531659141344cd1fd0a4f28419497f9722a3daafe3b4186f6b6457e060405160405180910390a35050565b6117096107c7565b15611749576040517f08c379a00000000000000000000000000000000000000000000000000000000081526004016117409061277a565b60405180910390fd5b6001600960146101000a81548160ff0219169083151502179055507f62e78cea01bee320cd4e420270b5ea74000d11b0c9f74754ebdbfc544b05a25861178d610e78565b60405161179a9190611d94565b60405180910390a1565b60006117b060086119a9565b60006117ba6118be565b90507f8030e83b04d87bef53480e26263266d6ca66863aa8506aca6f2559d18aa1cb67816040516117eb9190611c86565b60405180910390a18091505090565b61184a600560008373ffffffffffffffffffffffffffffffffffffffff1673ffffffffffffffffffffffffffffffffffffffff168152602001908152602001600020611845836107de565b6119bf565b50565b61185f600661185a610500565b6119bf565b565b6118696107c7565b156118a9576040517f08c379a00000000000000000000000000000000000000000000000000000000081526004016118a09061277a565b60405180910390fd5b6118b4838383610dab565b505050565b505050565b60006118ca6008610e6a565b905090565b600080838054905014156118e657600090506119a3565b600080848054905090505b8082101561194a5760006119058383611a3a565b90508486828154811061191b5761191a6126ff565b5b9060005260206000200154111561193457809150611944565b6001816119419190611f11565b92505b506118f1565b6000821180156119825750838560018461196491906125f3565b81548110611975576119746126ff565b5b9060005260206000200154145b1561199d5760018261199491906125f3565b925050506119a3565b81925050505b92915050565b6001816000016000828254019250508190555050565b60006119c96118be565b9050806119d884600001611a60565b1015611a355782600001819080600181540180825580915050600190039060005260206000200160009091909190915055826001018290806001815401808255809150506001900390600052602060002001600090919091909150555b505050565b60006002828418611a4b91906127c9565b828416611a589190611f11565b905092915050565b60008082805490501415611a775760009050611aa8565b8160018380549050611a8991906125f3565b81548110611a9a57611a996126ff565b5b906000526020600020015490505b919050565b600081519050919050565b600082825260208201905092915050565b60005b83811015611ae7578082015181840152602081019050611acc565b83811115611af6576000848401525b50505050565b6000601f19601f8301169050919050565b6000611b1882611aad565b611b228185611ab8565b9350611b32818560208601611ac9565b611b3b81611afc565b840191505092915050565b60006020820190508181036000830152611b608184611b0d565b905092915050565b600080fd5b600073ffffffffffffffffffffffffffffffffffffffff82169050919050565b6000611b9882611b6d565b9050919050565b611ba881611b8d565b8114611bb357600080fd5b50565b600081359050611bc581611b9f565b92915050565b6000819050919050565b611bde81611bcb565b8114611be957600080fd5b50565b600081359050611bfb81611bd5565b92915050565b60008060408385031215611c1857611c17611b68565b5b6000611c2685828601611bb6565b9250506020611c3785828601611bec565b9150509250929050565b60008115159050919050565b611c5681611c41565b82525050565b6000602082019050611c716000830184611c4d565b92915050565b611c8081611bcb565b82525050565b6000602082019050611c9b6000830184611c77565b92915050565b600080600060608486031215611cba57611cb9611b68565b5b6000611cc886828701611bb6565b9350506020611cd986828701611bb6565b9250506040611cea86828701611bec565b9150509250925092565b600060ff82169050919050565b611d0a81611cf4565b82525050565b6000602082019050611d256000830184611d01565b92915050565b600060208284031215611d4157611d40611b68565b5b6000611d4f84828501611bec565b91505092915050565b600060208284031215611d6e57611d6d611b68565b5b6000611d7c84828501611bb6565b91505092915050565b611d8e81611b8d565b82525050565b6000602082019050611da96000830184611d85565b92915050565b60008060408385031215611dc657611dc5611b68565b5b6000611dd485828601611bb6565b9250506020611de585828601611bb6565b9150509250929050565b7f4e487b7100000000000000000000000000000000000000000000000000000000600052602260045260246000fd5b60006002820490506001821680611e3657607f821691505b60208210811415611e4a57611e49611def565b5b50919050565b7f45524332303a207472616e7366657220616d6f756e742065786365656473206160008201527f6c6c6f77616e6365000000000000000000000000000000000000000000000000602082015250565b6000611eac602883611ab8565b9150611eb782611e50565b604082019050919050565b60006020820190508181036000830152611edb81611e9f565b9050919050565b7f4e487b7100000000000000000000000000000000000000000000000000000000600052601160045260246000fd5b6000611f1c82611bcb565b9150611f2783611bcb565b9250827fffffffffffffffffffffffffffffffffffffffffffffffffffffffffffffffff03821115611f5c57611f5b611ee2565b5b828201905092915050565b7f4f776e61626c653a2063616c6c6572206973206e6f7420746865206f776e6572600082015250565b6000611f9d602083611ab8565b9150611fa882611f67565b602082019050919050565b60006020820190508181036000830152611fcc81611f90565b9050919050565b7f45524332303a206275726e20616d6f756e74206578636565647320616c6c6f7760008201527f616e636500000000000000000000000000000000000000000000000000000000602082015250565b600061202f602483611ab8565b915061203a82611fd3565b604082019050919050565b6000602082019050818103600083015261205e81612022565b9050919050565b7f45524332303a2064656372656173656420616c6c6f77616e63652062656c6f7760008201527f207a65726f000000000000000000000000000000000000000000000000000000602082015250565b60006120c1602583611ab8565b91506120cc82612065565b604082019050919050565b600060208201905081810360008301526120f0816120b4565b9050919050565b7f4f776e61626c653a206e6577206f776e657220697320746865207a65726f206160008201527f6464726573730000000000000000000000000000000000000000000000000000602082015250565b6000612153602683611ab8565b915061215e826120f7565b604082019050919050565b6000602082019050818103600083015261218281612146565b9050919050565b7f45524332303a20617070726f76652066726f6d20746865207a65726f2061646460008201527f7265737300000000000000000000000000000000000000000000000000000000602082015250565b60006121e5602483611ab8565b91506121f082612189565b604082019050919050565b60006020820190508181036000830152612214816121d8565b9050919050565b7f45524332303a20617070726f766520746f20746865207a65726f20616464726560008201527f7373000000000000000000000000000000000000000000000000000000000000602082015250565b6000612277602283611ab8565b91506122828261221b565b604082019050919050565b600060208201905081810360008301526122a68161226a565b9050919050565b7f45524332303a207472616e736665722066726f6d20746865207a65726f20616460008201527f6472657373000000000000000000000000000000000000000000000000000000602082015250565b6000612309602583611ab8565b9150612314826122ad565b604082019050919050565b60006020820190508181036000830152612338816122fc565b9050919050565b7f45524332303a207472616e7366657220746f20746865207a65726f206164647260008201527f6573730000000000000000000000000000000000000000000000000000000000602082015250565b600061239b602383611ab8565b91506123a68261233f565b604082019050919050565b600060208201905081810360008301526123ca8161238e565b9050919050565b7f45524332303a207472616e7366657220616d6f756e742065786365656473206260008201527f616c616e63650000000000000000000000000000000000000000000000000000602082015250565b600061242d602683611ab8565b9150612438826123d1565b604082019050919050565b6000602082019050818103600083015261245c81612420565b9050919050565b7f5061757361626c653a206e6f7420706175736564000000000000000000000000600082015250565b6000612499601483611ab8565b91506124a482612463565b602082019050919050565b600060208201905081810360008301526124c88161248c565b9050919050565b7f45524332303a206275726e2066726f6d20746865207a65726f2061646472657360008201527f7300000000000000000000000000000000000000000000000000000000000000602082015250565b600061252b602183611ab8565b9150612536826124cf565b604082019050919050565b6000602082019050818103600083015261255a8161251e565b9050919050565b7f45524332303a206275726e20616d6f756e7420657863656564732062616c616e60008201527f6365000000000000000000000000000000000000000000000000000000000000602082015250565b60006125bd602283611ab8565b91506125c882612561565b604082019050919050565b600060208201905081810360008301526125ec816125b0565b9050919050565b60006125fe82611bcb565b915061260983611bcb565b92508282101561261c5761261b611ee2565b5b828203905092915050565b7f4552433230536e617073686f743a206964206973203000000000000000000000600082015250565b600061265d601683611ab8565b915061266882612627565b602082019050919050565b6000602082019050818103600083015261268c81612650565b9050919050565b7f4552433230536e617073686f743a206e6f6e6578697374656e74206964000000600082015250565b60006126c9601d83611ab8565b91506126d482612693565b602082019050919050565b600060208201905081810360008301526126f8816126bc565b9050919050565b7f4e487b7100000000000000000000000000000000000000000000000000000000600052603260045260246000fd5b7f5061757361626c653a2070617573656400000000000000000000000000000000600082015250565b6000612764601083611ab8565b915061276f8261272e565b602082019050919050565b6000602082019050818103600083015261279381612757565b9050919050565b7f4e487b7100000000000000000000000000000000000000000000000000000000600052601260045260246000fd5b60006127d482611bcb565b91506127df83611bcb565b9250826127ef576127ee61279a565b5b82820490509291505056fea264697066735822122032c381cceddda2551e3334e077f497197f6f43d790e32532db208f7a449aec5964736f6c634300080a0033",
  "immutableReferences": {},
  "source": "//SPDX-License-Identifier: MIT\npragma solidity ^0.8.0;\n\nimport \"@openzeppelin/contracts/token/ERC20/ERC20.sol\";\nimport \"@openzeppelin/contracts/token/ERC20/extensions/ERC20Burnable.sol\";\nimport \"@openzeppelin/contracts/token/ERC20/extensions/ERC20Snapshot.sol\";\nimport \"@openzeppelin/contracts/access/Ownable.sol\";\nimport \"@openzeppelin/contracts/security/Pausable.sol\";\nimport \"@openzeppelin/contracts/utils/math/SafeMath.sol\";\n\ncontract EmpireToken is\n    ERC20(\"Empire\", \"EMPIRE\"),\n    ERC20Burnable,\n    ERC20Snapshot,\n    Ownable,\n    Pausable\n{\n    uint256 public MAX_SUPPLY = 1 * 10**9 * 10**18; //1billion\n\n    constructor() {\n        _mint(msg.sender, MAX_SUPPLY);\n    }\n\n    function pause() external onlyOwner {\n        _pause();\n    }\n\n    function unpause() external onlyOwner {\n        _unpause();\n    }\n\n    function snapshot() external onlyOwner {\n        _snapshot();\n    }\n\n    function _beforeTokenTransfer(\n        address from,\n        address to,\n        uint256 amount\n    ) internal override(ERC20, ERC20Snapshot) whenNotPaused {\n        super._beforeTokenTransfer(from, to, amount);\n    }\n}\n",
  "sourcePath": "/Users/victorwu/repos/avalanche-smart-contract-quickstart/contracts/EmpireToken.sol",
  "compiler": {
    "name": "solc",
    "version": "0.8.10+commit.fc410830.Emscripten.clang"
  },
  "schemaVersion": "3.4.3",
  "updatedAt": "2021-12-09T07:28:02.523Z",
  "devdoc": {
    "kind": "dev",
    "methods": {
      "allowance(address,address)": {
        "details": "See {IERC20-allowance}."
      },
      "approve(address,uint256)": {
        "details": "See {IERC20-approve}. Requirements: - `spender` cannot be the zero address."
      },
      "balanceOf(address)": {
        "details": "See {IERC20-balanceOf}."
      },
      "balanceOfAt(address,uint256)": {
        "details": "Retrieves the balance of `account` at the time `snapshotId` was created."
      },
      "burn(uint256)": {
        "details": "Destroys `amount` tokens from the caller. See {ERC20-_burn}."
      },
      "burnFrom(address,uint256)": {
        "details": "Destroys `amount` tokens from `account`, deducting from the caller's allowance. See {ERC20-_burn} and {ERC20-allowance}. Requirements: - the caller must have allowance for ``accounts``'s tokens of at least `amount`."
      },
      "decimals()": {
        "details": "Returns the number of decimals used to get its user representation. For example, if `decimals` equals `2`, a balance of `505` tokens should be displayed to a user as `5.05` (`505 / 10 ** 2`). Tokens usually opt for a value of 18, imitating the relationship between Ether and Wei. This is the value {ERC20} uses, unless this function is overridden; NOTE: This information is only used for _display_ purposes: it in no way affects any of the arithmetic of the contract, including {IERC20-balanceOf} and {IERC20-transfer}."
      },
      "decreaseAllowance(address,uint256)": {
        "details": "Atomically decreases the allowance granted to `spender` by the caller. This is an alternative to {approve} that can be used as a mitigation for problems described in {IERC20-approve}. Emits an {Approval} event indicating the updated allowance. Requirements: - `spender` cannot be the zero address. - `spender` must have allowance for the caller of at least `subtractedValue`."
      },
      "increaseAllowance(address,uint256)": {
        "details": "Atomically increases the allowance granted to `spender` by the caller. This is an alternative to {approve} that can be used as a mitigation for problems described in {IERC20-approve}. Emits an {Approval} event indicating the updated allowance. Requirements: - `spender` cannot be the zero address."
      },
      "name()": {
        "details": "Returns the name of the token."
      },
      "owner()": {
        "details": "Returns the address of the current owner."
      },
      "paused()": {
        "details": "Returns true if the contract is paused, and false otherwise."
      },
      "renounceOwnership()": {
        "details": "Leaves the contract without owner. It will not be possible to call `onlyOwner` functions anymore. Can only be called by the current owner. NOTE: Renouncing ownership will leave the contract without an owner, thereby removing any functionality that is only available to the owner."
      },
      "symbol()": {
        "details": "Returns the symbol of the token, usually a shorter version of the name."
      },
      "totalSupply()": {
        "details": "See {IERC20-totalSupply}."
      },
      "totalSupplyAt(uint256)": {
        "details": "Retrieves the total supply at the time `snapshotId` was created."
      },
      "transfer(address,uint256)": {
        "details": "See {IERC20-transfer}. Requirements: - `recipient` cannot be the zero address. - the caller must have a balance of at least `amount`."
      },
      "transferFrom(address,address,uint256)": {
        "details": "See {IERC20-transferFrom}. Emits an {Approval} event indicating the updated allowance. This is not required by the EIP. See the note at the beginning of {ERC20}. Requirements: - `sender` and `recipient` cannot be the zero address. - `sender` must have a balance of at least `amount`. - the caller must have allowance for ``sender``'s tokens of at least `amount`."
      },
      "transferOwnership(address)": {
        "details": "Transfers ownership of the contract to a new account (`newOwner`). Can only be called by the current owner."
      }
    },
    "version": 1
  },
  "userdoc": {
    "kind": "user",
    "methods": {},
    "version": 1
  }
}